:040000008031132810
:100008002700131E0D28210019309D002700131208
:100018000900210029309D002700931209002100C2
:1000280068309900602073202700111692169301FA
:100038008B158B17210018309D0070309E009F0192
:100048001D140C1A4A200C1A252821009D149D18ED
:100058002B281C08F2008D207308AC20F3007408CC
:10006800AC20F4007508AC20F500BE207408BE2052
:100078007308BE20402025286430F100F930F000D4
:100088000000F00B4428F10B422808008C1A4D2080
:1000980008000930F2008D207308AC20F3007408C2
:1000A800AC20F4007508AC20F500BE207408BE2012
:1000B8007308BE204020080022008C018D018E01AB
:1000C800230000308C0010308D0004308E00210099
:1000D800FB308C003F308D0015308E000800240066
:1000E800940130309500030120000E132400910084
:1000F800141C7C28110803019100141C8128110884
:1001080003019100141C86281108030120000E1712
:100118000800F501F401F301F235F50DF235F50D9E
:10012800F235F50D0530F4007508033E8919F50020
:100138007508303E891BF500F235F50DF30DF40B0B
:1001480098287508F400F40E0F30F505F40508003A
:100158000F390B00FC346034DA34F2346634B634C8
:10016800BE34E034FE34F634EE343E349C347A3413
:100178009E348E3420000E1324009100141CC228D3
:0A0188001108030120000E17080003
:020000040001F9
:04000E00E43FFF3F8D
:00000001FF
