:04000000803106281D
:100008000000090021006830990048205B2020008A
:10001800F801F9013B30F9000230F80013280C1EF2
:1000280013281D201820132864303F200C1E0800B8
:100038001828F903031938207908F4007520750881
:100048009420F50076089420F60077089420F700AD
:10005800A6207608A6207808F40075207708942052
:1000680080000008A62008003B30F900F8030319B7
:10007800062808006430F100F930F0000000F00BA9
:100088004228F10B4028080022008C018D018E01C6
:10009800230000308C0010308D0004308E002100C9
:1000A800FB308C003F308D0015308E000800240096
:1000B800940130309500030120000E1324009100B4
:1000C800141C6428110803019100141C69281108E4
:1000D80003019100141C6E281108030120000E175B
:1000E8000800F701F601F501F435F70DF435F70DC1
:1000F800F435F70D0530F6007708033E8919F70047
:100108007708303E891BF700F435F70DF50DF60B2F
:1001180080287708F600F60E0F30F705F605080078
:100128000F390B00FC346034DA34F2346634B634F8
:10013800BE34E034FE34F634EE343E349C347A3443
:100148009E348E3420000E1324009100141CAA281B
:0A0158001108030120000E17080033
:020000040001F9
:04000E00E43FFF3F8D
:00000001FF
