:04000000803105281E
:100008000900210068309900492023009E161E151A
:100018001D169C0119309B009D1787011130860021
:100028002300811E15281908F0000000011E1A2857
:100038003F307002031923209E1C202815284230C7
:10004800442054304420313044205F304420200084
:100058000C1E30300C1A3130230044205F3044200D
:100068004230442054304420323044205F30442011
:1000780020008C1E30308C1A3130230044200800B8
:100088000000011E45289A00080022008C018D01FD
:100098008E01230000308C0010308D0004308E005B
:1000A8002100FB308C003F308D0015308E00080099
:020000040001F9
:04000E00E43FFF3F8D
:00000001FF
