:04000000803106281D
:1000080000000900210068309900352048202000B0
:10001800F3010E280C1E0E28182013200E28643019
:100028002C200C1E08001328F30A7308F400622021
:1000380075088120F50076088120F6007708812070
:10004800F700932076089320750893200800643001
:10005800F100F930F0000000F00B2F28F10B2D28EB
:10006800080022008C018D018E01230000308C00D5
:1000780010308D0004308E002100FB308C003F30A2
:100088008D0015308E000800240094013030950052
:10009800030120000E1324009100141C512811089C
:1000A80003019100141C5628110803019100141C27
:1000B8005B281108030120000E170800F701F6015C
:1000C800F501F435F70DF435F70DF435F70D053076
:1000D800F6007708033E8919F7007708303E891B38
:1000E800F700F435F70DF50DF60B6D287708F600D7
:1000F800F60E0F30F705F60508000F390B00FC3433
:100108006034DA34F2346634B634BE34E034FE3463
:10011800F634EE343E349C347A349E348E342000E7
:100128000E1324009100141C9728110803012000C5
:040138000E17080096
:020000040001F9
:04000E00E43FFF3F8D
:00000001FF
